{
  "contractName": "ColorLand",
  "abi": [
    {
      "inputs": [
        {
          "internalType": "uint256",
          "name": "initPrice",
          "type": "uint256"
        }
      ],
      "stateMutability": "nonpayable",
      "type": "constructor"
    },
    {
      "anonymous": false,
      "inputs": [
        {
          "indexed": true,
          "internalType": "address",
          "name": "owner",
          "type": "address"
        },
        {
          "indexed": true,
          "internalType": "address",
          "name": "approved",
          "type": "address"
        },
        {
          "indexed": true,
          "internalType": "uint256",
          "name": "tokenId",
          "type": "uint256"
        }
      ],
      "name": "Approval",
      "type": "event"
    },
    {
      "anonymous": false,
      "inputs": [
        {
          "indexed": true,
          "internalType": "address",
          "name": "owner",
          "type": "address"
        },
        {
          "indexed": true,
          "internalType": "address",
          "name": "operator",
          "type": "address"
        },
        {
          "indexed": false,
          "internalType": "bool",
          "name": "approved",
          "type": "bool"
        }
      ],
      "name": "ApprovalForAll",
      "type": "event"
    },
    {
      "anonymous": false,
      "inputs": [
        {
          "indexed": true,
          "internalType": "address",
          "name": "previousOwner",
          "type": "address"
        },
        {
          "indexed": true,
          "internalType": "address",
          "name": "newOwner",
          "type": "address"
        }
      ],
      "name": "OwnershipTransferred",
      "type": "event"
    },
    {
      "anonymous": false,
      "inputs": [
        {
          "indexed": true,
          "internalType": "bytes32",
          "name": "role",
          "type": "bytes32"
        },
        {
          "indexed": true,
          "internalType": "bytes32",
          "name": "previousAdminRole",
          "type": "bytes32"
        },
        {
          "indexed": true,
          "internalType": "bytes32",
          "name": "newAdminRole",
          "type": "bytes32"
        }
      ],
      "name": "RoleAdminChanged",
      "type": "event"
    },
    {
      "anonymous": false,
      "inputs": [
        {
          "indexed": true,
          "internalType": "bytes32",
          "name": "role",
          "type": "bytes32"
        },
        {
          "indexed": true,
          "internalType": "address",
          "name": "account",
          "type": "address"
        },
        {
          "indexed": true,
          "internalType": "address",
          "name": "sender",
          "type": "address"
        }
      ],
      "name": "RoleGranted",
      "type": "event"
    },
    {
      "anonymous": false,
      "inputs": [
        {
          "indexed": true,
          "internalType": "bytes32",
          "name": "role",
          "type": "bytes32"
        },
        {
          "indexed": true,
          "internalType": "address",
          "name": "account",
          "type": "address"
        },
        {
          "indexed": true,
          "internalType": "address",
          "name": "sender",
          "type": "address"
        }
      ],
      "name": "RoleRevoked",
      "type": "event"
    },
    {
      "anonymous": false,
      "inputs": [
        {
          "indexed": true,
          "internalType": "address",
          "name": "from",
          "type": "address"
        },
        {
          "indexed": true,
          "internalType": "address",
          "name": "to",
          "type": "address"
        },
        {
          "indexed": true,
          "internalType": "uint256",
          "name": "tokenId",
          "type": "uint256"
        }
      ],
      "name": "Transfer",
      "type": "event"
    },
    {
      "inputs": [],
      "name": "DEFAULT_ADMIN_ROLE",
      "outputs": [
        {
          "internalType": "bytes32",
          "name": "",
          "type": "bytes32"
        }
      ],
      "stateMutability": "view",
      "type": "function",
      "constant": true
    },
    {
      "inputs": [],
      "name": "MINTER_ROLE",
      "outputs": [
        {
          "internalType": "bytes32",
          "name": "",
          "type": "bytes32"
        }
      ],
      "stateMutability": "view",
      "type": "function",
      "constant": true
    },
    {
      "inputs": [],
      "name": "TRANSFER_ROLE",
      "outputs": [
        {
          "internalType": "bytes32",
          "name": "",
          "type": "bytes32"
        }
      ],
      "stateMutability": "view",
      "type": "function",
      "constant": true
    },
    {
      "inputs": [
        {
          "internalType": "address",
          "name": "to",
          "type": "address"
        },
        {
          "internalType": "uint256",
          "name": "tokenId",
          "type": "uint256"
        }
      ],
      "name": "approve",
      "outputs": [],
      "stateMutability": "nonpayable",
      "type": "function"
    },
    {
      "inputs": [
        {
          "internalType": "address",
          "name": "owner",
          "type": "address"
        }
      ],
      "name": "balanceOf",
      "outputs": [
        {
          "internalType": "uint256",
          "name": "",
          "type": "uint256"
        }
      ],
      "stateMutability": "view",
      "type": "function",
      "constant": true
    },
    {
      "inputs": [
        {
          "internalType": "uint256",
          "name": "tokenId",
          "type": "uint256"
        }
      ],
      "name": "getApproved",
      "outputs": [
        {
          "internalType": "address",
          "name": "",
          "type": "address"
        }
      ],
      "stateMutability": "view",
      "type": "function",
      "constant": true
    },
    {
      "inputs": [
        {
          "internalType": "bytes32",
          "name": "role",
          "type": "bytes32"
        }
      ],
      "name": "getRoleAdmin",
      "outputs": [
        {
          "internalType": "bytes32",
          "name": "",
          "type": "bytes32"
        }
      ],
      "stateMutability": "view",
      "type": "function",
      "constant": true
    },
    {
      "inputs": [
        {
          "internalType": "bytes32",
          "name": "role",
          "type": "bytes32"
        },
        {
          "internalType": "address",
          "name": "account",
          "type": "address"
        }
      ],
      "name": "grantRole",
      "outputs": [],
      "stateMutability": "nonpayable",
      "type": "function"
    },
    {
      "inputs": [
        {
          "internalType": "bytes32",
          "name": "role",
          "type": "bytes32"
        },
        {
          "internalType": "address",
          "name": "account",
          "type": "address"
        }
      ],
      "name": "hasRole",
      "outputs": [
        {
          "internalType": "bool",
          "name": "",
          "type": "bool"
        }
      ],
      "stateMutability": "view",
      "type": "function",
      "constant": true
    },
    {
      "inputs": [
        {
          "internalType": "address",
          "name": "owner",
          "type": "address"
        },
        {
          "internalType": "address",
          "name": "operator",
          "type": "address"
        }
      ],
      "name": "isApprovedForAll",
      "outputs": [
        {
          "internalType": "bool",
          "name": "",
          "type": "bool"
        }
      ],
      "stateMutability": "view",
      "type": "function",
      "constant": true
    },
    {
      "inputs": [],
      "name": "name",
      "outputs": [
        {
          "internalType": "string",
          "name": "",
          "type": "string"
        }
      ],
      "stateMutability": "view",
      "type": "function",
      "constant": true
    },
    {
      "inputs": [],
      "name": "owner",
      "outputs": [
        {
          "internalType": "address",
          "name": "",
          "type": "address"
        }
      ],
      "stateMutability": "view",
      "type": "function",
      "constant": true
    },
    {
      "inputs": [
        {
          "internalType": "uint256",
          "name": "tokenId",
          "type": "uint256"
        }
      ],
      "name": "ownerOf",
      "outputs": [
        {
          "internalType": "address",
          "name": "",
          "type": "address"
        }
      ],
      "stateMutability": "view",
      "type": "function",
      "constant": true
    },
    {
      "inputs": [],
      "name": "renounceOwnership",
      "outputs": [],
      "stateMutability": "nonpayable",
      "type": "function"
    },
    {
      "inputs": [
        {
          "internalType": "bytes32",
          "name": "role",
          "type": "bytes32"
        },
        {
          "internalType": "address",
          "name": "account",
          "type": "address"
        }
      ],
      "name": "renounceRole",
      "outputs": [],
      "stateMutability": "nonpayable",
      "type": "function"
    },
    {
      "inputs": [
        {
          "internalType": "bytes32",
          "name": "role",
          "type": "bytes32"
        },
        {
          "internalType": "address",
          "name": "account",
          "type": "address"
        }
      ],
      "name": "revokeRole",
      "outputs": [],
      "stateMutability": "nonpayable",
      "type": "function"
    },
    {
      "inputs": [
        {
          "internalType": "address",
          "name": "from",
          "type": "address"
        },
        {
          "internalType": "address",
          "name": "to",
          "type": "address"
        },
        {
          "internalType": "uint256",
          "name": "tokenId",
          "type": "uint256"
        }
      ],
      "name": "safeTransferFrom",
      "outputs": [],
      "stateMutability": "nonpayable",
      "type": "function"
    },
    {
      "inputs": [
        {
          "internalType": "address",
          "name": "from",
          "type": "address"
        },
        {
          "internalType": "address",
          "name": "to",
          "type": "address"
        },
        {
          "internalType": "uint256",
          "name": "tokenId",
          "type": "uint256"
        },
        {
          "internalType": "bytes",
          "name": "_data",
          "type": "bytes"
        }
      ],
      "name": "safeTransferFrom",
      "outputs": [],
      "stateMutability": "nonpayable",
      "type": "function"
    },
    {
      "inputs": [
        {
          "internalType": "address",
          "name": "operator",
          "type": "address"
        },
        {
          "internalType": "bool",
          "name": "approved",
          "type": "bool"
        }
      ],
      "name": "setApprovalForAll",
      "outputs": [],
      "stateMutability": "nonpayable",
      "type": "function"
    },
    {
      "inputs": [],
      "name": "symbol",
      "outputs": [
        {
          "internalType": "string",
          "name": "",
          "type": "string"
        }
      ],
      "stateMutability": "view",
      "type": "function",
      "constant": true
    },
    {
      "inputs": [
        {
          "internalType": "uint256",
          "name": "tokenId",
          "type": "uint256"
        }
      ],
      "name": "tokenURI",
      "outputs": [
        {
          "internalType": "string",
          "name": "",
          "type": "string"
        }
      ],
      "stateMutability": "view",
      "type": "function",
      "constant": true
    },
    {
      "inputs": [
        {
          "internalType": "address",
          "name": "from",
          "type": "address"
        },
        {
          "internalType": "address",
          "name": "to",
          "type": "address"
        },
        {
          "internalType": "uint256",
          "name": "tokenId",
          "type": "uint256"
        }
      ],
      "name": "transferFrom",
      "outputs": [],
      "stateMutability": "nonpayable",
      "type": "function"
    },
    {
      "inputs": [
        {
          "internalType": "address",
          "name": "newOwner",
          "type": "address"
        }
      ],
      "name": "transferOwnership",
      "outputs": [],
      "stateMutability": "nonpayable",
      "type": "function"
    },
    {
      "inputs": [],
      "name": "getTokenIds",
      "outputs": [
        {
          "internalType": "uint256",
          "name": "",
          "type": "uint256"
        }
      ],
      "stateMutability": "view",
      "type": "function",
      "constant": true
    },
    {
      "inputs": [],
      "name": "getInitPrice",
      "outputs": [
        {
          "internalType": "uint256",
          "name": "",
          "type": "uint256"
        }
      ],
      "stateMutability": "view",
      "type": "function",
      "constant": true
    },
    {
      "inputs": [
        {
          "internalType": "bytes4",
          "name": "interfaceId",
          "type": "bytes4"
        }
      ],
      "name": "supportsInterface",
      "outputs": [
        {
          "internalType": "bool",
          "name": "",
          "type": "bool"
        }
      ],
      "stateMutability": "view",
      "type": "function",
      "constant": true
    },
    {
      "inputs": [],
      "name": "getCurrentPrice",
      "outputs": [
        {
          "internalType": "uint256",
          "name": "",
          "type": "uint256"
        }
      ],
      "stateMutability": "view",
      "type": "function",
      "constant": true
    },
    {
      "inputs": [
        {
          "internalType": "address",
          "name": "marketAddress",
          "type": "address"
        }
      ],
      "name": "setApprove",
      "outputs": [
        {
          "internalType": "bool",
          "name": "",
          "type": "bool"
        }
      ],
      "stateMutability": "nonpayable",
      "type": "function"
    },
    {
      "inputs": [],
      "name": "getOwner",
      "outputs": [
        {
          "internalType": "address",
          "name": "",
          "type": "address"
        }
      ],
      "stateMutability": "view",
      "type": "function",
      "constant": true
    },
    {
      "inputs": [],
      "name": "getTotal",
      "outputs": [
        {
          "internalType": "uint256",
          "name": "",
          "type": "uint256"
        }
      ],
      "stateMutability": "view",
      "type": "function",
      "constant": true
    },
    {
      "inputs": [
        {
          "internalType": "address",
          "name": "receiver",
          "type": "address"
        }
      ],
      "name": "mintLand",
      "outputs": [
        {
          "internalType": "uint256",
          "name": "",
          "type": "uint256"
        }
      ],
      "stateMutability": "nonpayable",
      "type": "function"
    }
  ],
  "bytecode": "0x60806040523480156200001157600080fd5b5060405162003d2138038062003d2183398181016040528101906200003791906200049b565b6040518060400160405280600981526020017f436f6c6f724c616e6400000000000000000000000000000000000000000000008152506040518060400160405280600381526020017f434c5800000000000000000000000000000000000000000000000000000000008152508160009080519060200190620000bb929190620003ab565b508060019080519060200190620000d4929190620003ab565b505050620000f7620000eb6200016a60201b60201c565b6200017260201b60201c565b80600981905550620001226000801b620001166200016a60201b60201c565b6200023860201b60201c565b620001637f9f2df0fed2c77648de5860a4cc508cd0818c85b8b8a1ab4ceeef8d981c8956a6620001576200016a60201b60201c565b6200023860201b60201c565b5062000532565b600033905090565b6000600660009054906101000a900473ffffffffffffffffffffffffffffffffffffffff16905081600660006101000a81548173ffffffffffffffffffffffffffffffffffffffff021916908373ffffffffffffffffffffffffffffffffffffffff1602179055508173ffffffffffffffffffffffffffffffffffffffff168173ffffffffffffffffffffffffffffffffffffffff167f8be0079c531659141344cd1fd0a4f28419497f9722a3daafe3b4186f6b6457e060405160405180910390a35050565b6200024a82826200024e60201b60201c565b5050565b6200026082826200034060201b60201c565b6200033c5760016007600084815260200190815260200160002060000160008373ffffffffffffffffffffffffffffffffffffffff1673ffffffffffffffffffffffffffffffffffffffff16815260200190815260200160002060006101000a81548160ff021916908315150217905550620002e16200016a60201b60201c565b73ffffffffffffffffffffffffffffffffffffffff168173ffffffffffffffffffffffffffffffffffffffff16837f2f8788117e7eff1d82e926ec794901d17c78024a50270940304540a733656f0d60405160405180910390a45b5050565b60006007600084815260200190815260200160002060000160008373ffffffffffffffffffffffffffffffffffffffff1673ffffffffffffffffffffffffffffffffffffffff16815260200190815260200160002060009054906101000a900460ff16905092915050565b828054620003b990620004fc565b90600052602060002090601f016020900481019282620003dd576000855562000429565b82601f10620003f857805160ff191683800117855562000429565b8280016001018555821562000429579182015b82811115620004285782518255916020019190600101906200040b565b5b5090506200043891906200043c565b5090565b5b80821115620004575760008160009055506001016200043d565b5090565b600080fd5b6000819050919050565b620004758162000460565b81146200048157600080fd5b50565b60008151905062000495816200046a565b92915050565b600060208284031215620004b457620004b36200045b565b5b6000620004c48482850162000484565b91505092915050565b7f4e487b7100000000000000000000000000000000000000000000000000000000600052602260045260246000fd5b600060028204905060018216806200051557607f821691505b602082108114156200052c576200052b620004cd565b5b50919050565b6137df80620005426000396000f3fe608060405234801561001057600080fd5b50600436106101e55760003560e01c8063715018a61161010f578063b88d4fde116100a2578063d547741f11610071578063d547741f14610594578063e985e9c5146105b0578063eb91d37e146105e0578063f2fde38b146105fe576101e5565b8063b88d4fde146104fa578063c87b56dd14610516578063cd48121214610546578063d539139314610576576101e5565b806391d14854116100de57806391d148541461047257806395d89b41146104a2578063a217fddf146104c0578063a22cb465146104de576101e5565b8063715018a61461040e578063775a25e314610418578063893d20e8146104365780638da5cb5b14610454576101e5565b8063248a9ca31161018757806351b68ab91161015657806351b68ab9146103725780636352211e1461039057806367f718a9146103c057806370a08231146103de576101e5565b8063248a9ca3146102ee5780632f2ff15d1461031e57806336568abe1461033a57806342842e0e14610356576101e5565b8063095ea7b3116101c3578063095ea7b3146102685780630d4e96a314610284578063206b60f9146102b457806323b872dd146102d2576101e5565b806301ffc9a7146101ea57806306fdde031461021a578063081812fc14610238575b600080fd5b61020460048036038101906101ff9190612343565b61061a565b604051610211919061238b565b60405180910390f35b61022261062c565b60405161022f919061243f565b60405180910390f35b610252600480360381019061024d9190612497565b6106be565b60405161025f9190612505565b60405180910390f35b610282600480360381019061027d919061254c565b610743565b005b61029e6004803603810190610299919061258c565b61085b565b6040516102ab91906125c8565b60405180910390f35b6102bc610888565b6040516102c991906125fc565b60405180910390f35b6102ec60048036038101906102e79190612617565b6108ac565b005b61030860048036038101906103039190612696565b61090c565b60405161031591906125fc565b60405180910390f35b610338600480360381019061033391906126c3565b61092c565b005b610354600480360381019061034f91906126c3565b610955565b005b610370600480360381019061036b9190612617565b6109d8565b005b61037a6109f8565b60405161038791906125c8565b60405180910390f35b6103aa60048036038101906103a59190612497565b610a02565b6040516103b79190612505565b60405180910390f35b6103c8610ab4565b6040516103d591906125c8565b60405180910390f35b6103f860048036038101906103f3919061258c565b610ac5565b60405161040591906125c8565b60405180910390f35b610416610b7d565b005b610420610c05565b60405161042d91906125c8565b60405180910390f35b61043e610c1b565b60405161044b9190612505565b60405180910390f35b61045c610c2f565b6040516104699190612505565b60405180910390f35b61048c600480360381019061048791906126c3565b610c59565b604051610499919061238b565b60405180910390f35b6104aa610cc4565b6040516104b7919061243f565b60405180910390f35b6104c8610d56565b6040516104d591906125fc565b60405180910390f35b6104f860048036038101906104f3919061272f565b610d5d565b005b610514600480360381019061050f91906128a4565b610d73565b005b610530600480360381019061052b9190612497565b610dd5565b60405161053d919061243f565b60405180910390f35b610560600480360381019061055b919061258c565b610e7c565b60405161056d919061238b565b60405180910390f35b61057e610e92565b60405161058b91906125fc565b60405180910390f35b6105ae60048036038101906105a991906126c3565b610eb6565b005b6105ca60048036038101906105c59190612927565b610edf565b6040516105d7919061238b565b60405180910390f35b6105e8610f73565b6040516105f591906125c8565b60405180910390f35b6106186004803603810190610613919061258c565b610f7d565b005b600061062582611075565b9050919050565b60606000805461063b90612996565b80601f016020809104026020016040519081016040528092919081815260200182805461066790612996565b80156106b45780601f10610689576101008083540402835291602001916106b4565b820191906000526020600020905b81548152906001019060200180831161069757829003601f168201915b5050505050905090565b60006106c9826110ef565b610708576040517f08c379a00000000000000000000000000000000000000000000000000000000081526004016106ff90612a3a565b60405180910390fd5b6004600083815260200190815260200160002060009054906101000a900473ffffffffffffffffffffffffffffffffffffffff169050919050565b600061074e82610a02565b90508073ffffffffffffffffffffffffffffffffffffffff168373ffffffffffffffffffffffffffffffffffffffff1614156107bf576040517f08c379a00000000000000000000000000000000000000000000000000000000081526004016107b690612acc565b60405180910390fd5b8073ffffffffffffffffffffffffffffffffffffffff166107de61115b565b73ffffffffffffffffffffffffffffffffffffffff16148061080d575061080c8161080761115b565b610edf565b5b61084c576040517f08c379a000000000000000000000000000000000000000000000000000000000815260040161084390612b5e565b60405180910390fd5b6108568383611163565b505050565b6000610867600861121c565b60006108736008611232565b905061087f8382611240565b80915050919050565b7f8502233096d909befbda0999bb8ea2f3a6be3c138b9fbf003752a4c8bce86f6c81565b6108bd6108b761115b565b8261140e565b6108fc576040517f08c379a00000000000000000000000000000000000000000000000000000000081526004016108f390612bf0565b60405180910390fd5b6109078383836114ec565b505050565b600060076000838152602001908152602001600020600101549050919050565b6109358261090c565b6109468161094161115b565b611748565b61095083836117e5565b505050565b61095d61115b565b73ffffffffffffffffffffffffffffffffffffffff168173ffffffffffffffffffffffffffffffffffffffff16146109ca576040517f08c379a00000000000000000000000000000000000000000000000000000000081526004016109c190612c82565b60405180910390fd5b6109d482826118c6565b5050565b6109f383838360405180602001604052806000815250610d73565b505050565b6000600954905090565b6000806002600084815260200190815260200160002060009054906101000a900473ffffffffffffffffffffffffffffffffffffffff169050600073ffffffffffffffffffffffffffffffffffffffff168173ffffffffffffffffffffffffffffffffffffffff161415610aab576040517f08c379a0000000000000000000000000000000000000000000000000000000008152600401610aa290612d14565b60405180910390fd5b80915050919050565b6000610ac06008611232565b905090565b60008073ffffffffffffffffffffffffffffffffffffffff168273ffffffffffffffffffffffffffffffffffffffff161415610b36576040517f08c379a0000000000000000000000000000000000000000000000000000000008152600401610b2d90612da6565b60405180910390fd5b600360008373ffffffffffffffffffffffffffffffffffffffff1673ffffffffffffffffffffffffffffffffffffffff168152602001908152602001600020549050919050565b610b8561115b565b73ffffffffffffffffffffffffffffffffffffffff16610ba3610c2f565b73ffffffffffffffffffffffffffffffffffffffff1614610bf9576040517f08c379a0000000000000000000000000000000000000000000000000000000008152600401610bf090612e12565b60405180910390fd5b610c0360006119a8565b565b600080610c126008611232565b90508091505090565b600080610c26610c2f565b90508091505090565b6000600660009054906101000a900473ffffffffffffffffffffffffffffffffffffffff16905090565b60006007600084815260200190815260200160002060000160008373ffffffffffffffffffffffffffffffffffffffff1673ffffffffffffffffffffffffffffffffffffffff16815260200190815260200160002060009054906101000a900460ff16905092915050565b606060018054610cd390612996565b80601f0160208091040260200160405190810160405280929190818152602001828054610cff90612996565b8015610d4c5780601f10610d2157610100808354040283529160200191610d4c565b820191906000526020600020905b815481529060010190602001808311610d2f57829003601f168201915b5050505050905090565b6000801b81565b610d6f610d6861115b565b8383611a6e565b5050565b610d84610d7e61115b565b8361140e565b610dc3576040517f08c379a0000000000000000000000000000000000000000000000000000000008152600401610dba90612bf0565b60405180910390fd5b610dcf84848484611bdb565b50505050565b6060610de0826110ef565b610e1f576040517f08c379a0000000000000000000000000000000000000000000000000000000008152600401610e1690612ea4565b60405180910390fd5b6000610e29611c37565b90506000815111610e495760405180602001604052806000815250610e74565b80610e5384611c4e565b604051602001610e64929190612f00565b6040516020818303038152906040525b915050919050565b6000610e89826001610d5d565b60019050919050565b7f9f2df0fed2c77648de5860a4cc508cd0818c85b8b8a1ab4ceeef8d981c8956a681565b610ebf8261090c565b610ed081610ecb61115b565b611748565b610eda83836118c6565b505050565b6000600560008473ffffffffffffffffffffffffffffffffffffffff1673ffffffffffffffffffffffffffffffffffffffff16815260200190815260200160002060008373ffffffffffffffffffffffffffffffffffffffff1673ffffffffffffffffffffffffffffffffffffffff16815260200190815260200160002060009054906101000a900460ff16905092915050565b6000600954905090565b610f8561115b565b73ffffffffffffffffffffffffffffffffffffffff16610fa3610c2f565b73ffffffffffffffffffffffffffffffffffffffff1614610ff9576040517f08c379a0000000000000000000000000000000000000000000000000000000008152600401610ff090612e12565b60405180910390fd5b600073ffffffffffffffffffffffffffffffffffffffff168173ffffffffffffffffffffffffffffffffffffffff161415611069576040517f08c379a000000000000000000000000000000000000000000000000000000000815260040161106090612f96565b60405180910390fd5b611072816119a8565b50565b60007f7965db0b000000000000000000000000000000000000000000000000000000007bffffffffffffffffffffffffffffffffffffffffffffffffffffffff1916827bffffffffffffffffffffffffffffffffffffffffffffffffffffffff191614806110e857506110e782611daf565b5b9050919050565b60008073ffffffffffffffffffffffffffffffffffffffff166002600084815260200190815260200160002060009054906101000a900473ffffffffffffffffffffffffffffffffffffffff1673ffffffffffffffffffffffffffffffffffffffff1614159050919050565b600033905090565b816004600083815260200190815260200160002060006101000a81548173ffffffffffffffffffffffffffffffffffffffff021916908373ffffffffffffffffffffffffffffffffffffffff160217905550808273ffffffffffffffffffffffffffffffffffffffff166111d683610a02565b73ffffffffffffffffffffffffffffffffffffffff167f8c5be1e5ebec7d5bd14f71427d1e84f3dd0314c0f7b2291e5b200ac8c7c3b92560405160405180910390a45050565b6001816000016000828254019250508190555050565b600081600001549050919050565b600073ffffffffffffffffffffffffffffffffffffffff168273ffffffffffffffffffffffffffffffffffffffff1614156112b0576040517f08c379a00000000000000000000000000000000000000000000000000000000081526004016112a790613002565b60405180910390fd5b6112b9816110ef565b156112f9576040517f08c379a00000000000000000000000000000000000000000000000000000000081526004016112f09061306e565b60405180910390fd5b61130560008383611e91565b6001600360008473ffffffffffffffffffffffffffffffffffffffff1673ffffffffffffffffffffffffffffffffffffffff168152602001908152602001600020600082825461135591906130bd565b92505081905550816002600083815260200190815260200160002060006101000a81548173ffffffffffffffffffffffffffffffffffffffff021916908373ffffffffffffffffffffffffffffffffffffffff160217905550808273ffffffffffffffffffffffffffffffffffffffff16600073ffffffffffffffffffffffffffffffffffffffff167fddf252ad1be2c89b69c2b068fc378daa952ba7f163c4a11628f55a4df523b3ef60405160405180910390a45050565b6000611419826110ef565b611458576040517f08c379a000000000000000000000000000000000000000000000000000000000815260040161144f90613185565b60405180910390fd5b600061146383610a02565b90508073ffffffffffffffffffffffffffffffffffffffff168473ffffffffffffffffffffffffffffffffffffffff1614806114d257508373ffffffffffffffffffffffffffffffffffffffff166114ba846106be565b73ffffffffffffffffffffffffffffffffffffffff16145b806114e357506114e28185610edf565b5b91505092915050565b8273ffffffffffffffffffffffffffffffffffffffff1661150c82610a02565b73ffffffffffffffffffffffffffffffffffffffff1614611562576040517f08c379a000000000000000000000000000000000000000000000000000000000815260040161155990613217565b60405180910390fd5b600073ffffffffffffffffffffffffffffffffffffffff168273ffffffffffffffffffffffffffffffffffffffff1614156115d2576040517f08c379a00000000000000000000000000000000000000000000000000000000081526004016115c9906132a9565b60405180910390fd5b6115dd838383611e91565b6115e8600082611163565b6001600360008573ffffffffffffffffffffffffffffffffffffffff1673ffffffffffffffffffffffffffffffffffffffff168152602001908152602001600020600082825461163891906132c9565b925050819055506001600360008473ffffffffffffffffffffffffffffffffffffffff1673ffffffffffffffffffffffffffffffffffffffff168152602001908152602001600020600082825461168f91906130bd565b92505081905550816002600083815260200190815260200160002060006101000a81548173ffffffffffffffffffffffffffffffffffffffff021916908373ffffffffffffffffffffffffffffffffffffffff160217905550808273ffffffffffffffffffffffffffffffffffffffff168473ffffffffffffffffffffffffffffffffffffffff167fddf252ad1be2c89b69c2b068fc378daa952ba7f163c4a11628f55a4df523b3ef60405160405180910390a4505050565b6117528282610c59565b6117e1576117778173ffffffffffffffffffffffffffffffffffffffff166014611e96565b6117858360001c6020611e96565b604051602001611796929190613395565b6040516020818303038152906040526040517f08c379a00000000000000000000000000000000000000000000000000000000081526004016117d8919061243f565b60405180910390fd5b5050565b6117ef8282610c59565b6118c25760016007600084815260200190815260200160002060000160008373ffffffffffffffffffffffffffffffffffffffff1673ffffffffffffffffffffffffffffffffffffffff16815260200190815260200160002060006101000a81548160ff02191690831515021790555061186761115b565b73ffffffffffffffffffffffffffffffffffffffff168173ffffffffffffffffffffffffffffffffffffffff16837f2f8788117e7eff1d82e926ec794901d17c78024a50270940304540a733656f0d60405160405180910390a45b5050565b6118d08282610c59565b156119a45760006007600084815260200190815260200160002060000160008373ffffffffffffffffffffffffffffffffffffffff1673ffffffffffffffffffffffffffffffffffffffff16815260200190815260200160002060006101000a81548160ff02191690831515021790555061194961115b565b73ffffffffffffffffffffffffffffffffffffffff168173ffffffffffffffffffffffffffffffffffffffff16837ff6391f5c32d9c69d2a47ea670b442974b53935d1edc7fd64eb21e047a839171b60405160405180910390a45b5050565b6000600660009054906101000a900473ffffffffffffffffffffffffffffffffffffffff16905081600660006101000a81548173ffffffffffffffffffffffffffffffffffffffff021916908373ffffffffffffffffffffffffffffffffffffffff1602179055508173ffffffffffffffffffffffffffffffffffffffff168173ffffffffffffffffffffffffffffffffffffffff167f8be0079c531659141344cd1fd0a4f28419497f9722a3daafe3b4186f6b6457e060405160405180910390a35050565b8173ffffffffffffffffffffffffffffffffffffffff168373ffffffffffffffffffffffffffffffffffffffff161415611add576040517f08c379a0000000000000000000000000000000000000000000000000000000008152600401611ad49061341b565b60405180910390fd5b80600560008573ffffffffffffffffffffffffffffffffffffffff1673ffffffffffffffffffffffffffffffffffffffff16815260200190815260200160002060008473ffffffffffffffffffffffffffffffffffffffff1673ffffffffffffffffffffffffffffffffffffffff16815260200190815260200160002060006101000a81548160ff0219169083151502179055508173ffffffffffffffffffffffffffffffffffffffff168373ffffffffffffffffffffffffffffffffffffffff167f17307eab39ab6107e8899845ad3d59bd9653f200f220920489ca2b5937696c3183604051611bce919061238b565b60405180910390a3505050565b611be68484846114ec565b611bf2848484846120d2565b611c31576040517f08c379a0000000000000000000000000000000000000000000000000000000008152600401611c28906134ad565b60405180910390fd5b50505050565b606060405180602001604052806000815250905090565b60606000821415611c96576040518060400160405280600181526020017f30000000000000000000000000000000000000000000000000000000000000008152509050611daa565b600082905060005b60008214611cc8578080611cb1906134cd565b915050600a82611cc19190613545565b9150611c9e565b60008167ffffffffffffffff811115611ce457611ce3612779565b5b6040519080825280601f01601f191660200182016040528015611d165781602001600182028036833780820191505090505b5090505b60008514611da357600182611d2f91906132c9565b9150600a85611d3e9190613576565b6030611d4a91906130bd565b60f81b818381518110611d6057611d5f6135a7565b5b60200101907effffffffffffffffffffffffffffffffffffffffffffffffffffffffffffff1916908160001a905350600a85611d9c9190613545565b9450611d1a565b8093505050505b919050565b60007f80ac58cd000000000000000000000000000000000000000000000000000000007bffffffffffffffffffffffffffffffffffffffffffffffffffffffff1916827bffffffffffffffffffffffffffffffffffffffffffffffffffffffff19161480611e7a57507f5b5e139f000000000000000000000000000000000000000000000000000000007bffffffffffffffffffffffffffffffffffffffffffffffffffffffff1916827bffffffffffffffffffffffffffffffffffffffffffffffffffffffff1916145b80611e8a5750611e898261225a565b5b9050919050565b505050565b606060006002836002611ea991906135d6565b611eb391906130bd565b67ffffffffffffffff811115611ecc57611ecb612779565b5b6040519080825280601f01601f191660200182016040528015611efe5781602001600182028036833780820191505090505b5090507f300000000000000000000000000000000000000000000000000000000000000081600081518110611f3657611f356135a7565b5b60200101907effffffffffffffffffffffffffffffffffffffffffffffffffffffffffffff1916908160001a9053507f780000000000000000000000000000000000000000000000000000000000000081600181518110611f9a57611f996135a7565b5b60200101907effffffffffffffffffffffffffffffffffffffffffffffffffffffffffffff1916908160001a90535060006001846002611fda91906135d6565b611fe491906130bd565b90505b6001811115612084577f3031323334353637383961626364656600000000000000000000000000000000600f861660108110612026576120256135a7565b5b1a60f81b82828151811061203d5761203c6135a7565b5b60200101907effffffffffffffffffffffffffffffffffffffffffffffffffffffffffffff1916908160001a905350600485901c94508061207d90613630565b9050611fe7565b50600084146120c8576040517f08c379a00000000000000000000000000000000000000000000000000000000081526004016120bf906136a6565b60405180910390fd5b8091505092915050565b60006120f38473ffffffffffffffffffffffffffffffffffffffff166122c4565b1561224d578373ffffffffffffffffffffffffffffffffffffffff1663150b7a0261211c61115b565b8786866040518563ffffffff1660e01b815260040161213e949392919061371b565b6020604051808303816000875af192505050801561217a57506040513d601f19601f82011682018060405250810190612177919061377c565b60015b6121fd573d80600081146121aa576040519150601f19603f3d011682016040523d82523d6000602084013e6121af565b606091505b506000815114156121f5576040517f08c379a00000000000000000000000000000000000000000000000000000000081526004016121ec906134ad565b60405180910390fd5b805181602001fd5b63150b7a0260e01b7bffffffffffffffffffffffffffffffffffffffffffffffffffffffff1916817bffffffffffffffffffffffffffffffffffffffffffffffffffffffff191614915050612252565b600190505b949350505050565b60007f01ffc9a7000000000000000000000000000000000000000000000000000000007bffffffffffffffffffffffffffffffffffffffffffffffffffffffff1916827bffffffffffffffffffffffffffffffffffffffffffffffffffffffff1916149050919050565b600080823b905060008111915050919050565b6000604051905090565b600080fd5b600080fd5b60007fffffffff0000000000000000000000000000000000000000000000000000000082169050919050565b612320816122eb565b811461232b57600080fd5b50565b60008135905061233d81612317565b92915050565b600060208284031215612359576123586122e1565b5b60006123678482850161232e565b91505092915050565b60008115159050919050565b61238581612370565b82525050565b60006020820190506123a0600083018461237c565b92915050565b600081519050919050565b600082825260208201905092915050565b60005b838110156123e05780820151818401526020810190506123c5565b838111156123ef576000848401525b50505050565b6000601f19601f8301169050919050565b6000612411826123a6565b61241b81856123b1565b935061242b8185602086016123c2565b612434816123f5565b840191505092915050565b600060208201905081810360008301526124598184612406565b905092915050565b6000819050919050565b61247481612461565b811461247f57600080fd5b50565b6000813590506124918161246b565b92915050565b6000602082840312156124ad576124ac6122e1565b5b60006124bb84828501612482565b91505092915050565b600073ffffffffffffffffffffffffffffffffffffffff82169050919050565b60006124ef826124c4565b9050919050565b6124ff816124e4565b82525050565b600060208201905061251a60008301846124f6565b92915050565b612529816124e4565b811461253457600080fd5b50565b60008135905061254681612520565b92915050565b60008060408385031215612563576125626122e1565b5b600061257185828601612537565b925050602061258285828601612482565b9150509250929050565b6000602082840312156125a2576125a16122e1565b5b60006125b084828501612537565b91505092915050565b6125c281612461565b82525050565b60006020820190506125dd60008301846125b9565b92915050565b6000819050919050565b6125f6816125e3565b82525050565b600060208201905061261160008301846125ed565b92915050565b6000806000606084860312156126305761262f6122e1565b5b600061263e86828701612537565b935050602061264f86828701612537565b925050604061266086828701612482565b9150509250925092565b612673816125e3565b811461267e57600080fd5b50565b6000813590506126908161266a565b92915050565b6000602082840312156126ac576126ab6122e1565b5b60006126ba84828501612681565b91505092915050565b600080604083850312156126da576126d96122e1565b5b60006126e885828601612681565b92505060206126f985828601612537565b9150509250929050565b61270c81612370565b811461271757600080fd5b50565b60008135905061272981612703565b92915050565b60008060408385031215612746576127456122e1565b5b600061275485828601612537565b92505060206127658582860161271a565b9150509250929050565b600080fd5b600080fd5b7f4e487b7100000000000000000000000000000000000000000000000000000000600052604160045260246000fd5b6127b1826123f5565b810181811067ffffffffffffffff821117156127d0576127cf612779565b5b80604052505050565b60006127e36122d7565b90506127ef82826127a8565b919050565b600067ffffffffffffffff82111561280f5761280e612779565b5b612818826123f5565b9050602081019050919050565b82818337600083830152505050565b6000612847612842846127f4565b6127d9565b90508281526020810184848401111561286357612862612774565b5b61286e848285612825565b509392505050565b600082601f83011261288b5761288a61276f565b5b813561289b848260208601612834565b91505092915050565b600080600080608085870312156128be576128bd6122e1565b5b60006128cc87828801612537565b94505060206128dd87828801612537565b93505060406128ee87828801612482565b925050606085013567ffffffffffffffff81111561290f5761290e6122e6565b5b61291b87828801612876565b91505092959194509250565b6000806040838503121561293e5761293d6122e1565b5b600061294c85828601612537565b925050602061295d85828601612537565b9150509250929050565b7f4e487b7100000000000000000000000000000000000000000000000000000000600052602260045260246000fd5b600060028204905060018216806129ae57607f821691505b602082108114156129c2576129c1612967565b5b50919050565b7f4552433732313a20617070726f76656420717565727920666f72206e6f6e657860008201527f697374656e7420746f6b656e0000000000000000000000000000000000000000602082015250565b6000612a24602c836123b1565b9150612a2f826129c8565b604082019050919050565b60006020820190508181036000830152612a5381612a17565b9050919050565b7f4552433732313a20617070726f76616c20746f2063757272656e74206f776e6560008201527f7200000000000000000000000000000000000000000000000000000000000000602082015250565b6000612ab66021836123b1565b9150612ac182612a5a565b604082019050919050565b60006020820190508181036000830152612ae581612aa9565b9050919050565b7f4552433732313a20617070726f76652063616c6c6572206973206e6f74206f7760008201527f6e6572206e6f7220617070726f76656420666f7220616c6c0000000000000000602082015250565b6000612b486038836123b1565b9150612b5382612aec565b604082019050919050565b60006020820190508181036000830152612b7781612b3b565b9050919050565b7f4552433732313a207472616e736665722063616c6c6572206973206e6f74206f60008201527f776e6572206e6f7220617070726f766564000000000000000000000000000000602082015250565b6000612bda6031836123b1565b9150612be582612b7e565b604082019050919050565b60006020820190508181036000830152612c0981612bcd565b9050919050565b7f416363657373436f6e74726f6c3a2063616e206f6e6c792072656e6f756e636560008201527f20726f6c657320666f722073656c660000000000000000000000000000000000602082015250565b6000612c6c602f836123b1565b9150612c7782612c10565b604082019050919050565b60006020820190508181036000830152612c9b81612c5f565b9050919050565b7f4552433732313a206f776e657220717565727920666f72206e6f6e657869737460008201527f656e7420746f6b656e0000000000000000000000000000000000000000000000602082015250565b6000612cfe6029836123b1565b9150612d0982612ca2565b604082019050919050565b60006020820190508181036000830152612d2d81612cf1565b9050919050565b7f4552433732313a2062616c616e636520717565727920666f7220746865207a6560008201527f726f206164647265737300000000000000000000000000000000000000000000602082015250565b6000612d90602a836123b1565b9150612d9b82612d34565b604082019050919050565b60006020820190508181036000830152612dbf81612d83565b9050919050565b7f4f776e61626c653a2063616c6c6572206973206e6f7420746865206f776e6572600082015250565b6000612dfc6020836123b1565b9150612e0782612dc6565b602082019050919050565b60006020820190508181036000830152612e2b81612def565b9050919050565b7f4552433732314d657461646174613a2055524920717565727920666f72206e6f60008201527f6e6578697374656e7420746f6b656e0000000000000000000000000000000000602082015250565b6000612e8e602f836123b1565b9150612e9982612e32565b604082019050919050565b60006020820190508181036000830152612ebd81612e81565b9050919050565b600081905092915050565b6000612eda826123a6565b612ee48185612ec4565b9350612ef48185602086016123c2565b80840191505092915050565b6000612f0c8285612ecf565b9150612f188284612ecf565b91508190509392505050565b7f4f776e61626c653a206e6577206f776e657220697320746865207a65726f206160008201527f6464726573730000000000000000000000000000000000000000000000000000602082015250565b6000612f806026836123b1565b9150612f8b82612f24565b604082019050919050565b60006020820190508181036000830152612faf81612f73565b9050919050565b7f4552433732313a206d696e7420746f20746865207a65726f2061646472657373600082015250565b6000612fec6020836123b1565b9150612ff782612fb6565b602082019050919050565b6000602082019050818103600083015261301b81612fdf565b9050919050565b7f4552433732313a20746f6b656e20616c7265616479206d696e74656400000000600082015250565b6000613058601c836123b1565b915061306382613022565b602082019050919050565b600060208201905081810360008301526130878161304b565b9050919050565b7f4e487b7100000000000000000000000000000000000000000000000000000000600052601160045260246000fd5b60006130c882612461565b91506130d383612461565b9250827fffffffffffffffffffffffffffffffffffffffffffffffffffffffffffffffff038211156131085761310761308e565b5b828201905092915050565b7f4552433732313a206f70657261746f7220717565727920666f72206e6f6e657860008201527f697374656e7420746f6b656e0000000000000000000000000000000000000000602082015250565b600061316f602c836123b1565b915061317a82613113565b604082019050919050565b6000602082019050818103600083015261319e81613162565b9050919050565b7f4552433732313a207472616e73666572206f6620746f6b656e2074686174206960008201527f73206e6f74206f776e0000000000000000000000000000000000000000000000602082015250565b60006132016029836123b1565b915061320c826131a5565b604082019050919050565b60006020820190508181036000830152613230816131f4565b9050919050565b7f4552433732313a207472616e7366657220746f20746865207a65726f2061646460008201527f7265737300000000000000000000000000000000000000000000000000000000602082015250565b60006132936024836123b1565b915061329e82613237565b604082019050919050565b600060208201905081810360008301526132c281613286565b9050919050565b60006132d482612461565b91506132df83612461565b9250828210156132f2576132f161308e565b5b828203905092915050565b7f416363657373436f6e74726f6c3a206163636f756e7420000000000000000000600082015250565b6000613333601783612ec4565b915061333e826132fd565b601782019050919050565b7f206973206d697373696e6720726f6c6520000000000000000000000000000000600082015250565b600061337f601183612ec4565b915061338a82613349565b601182019050919050565b60006133a082613326565b91506133ac8285612ecf565b91506133b782613372565b91506133c38284612ecf565b91508190509392505050565b7f4552433732313a20617070726f766520746f2063616c6c657200000000000000600082015250565b60006134056019836123b1565b9150613410826133cf565b602082019050919050565b60006020820190508181036000830152613434816133f8565b9050919050565b7f4552433732313a207472616e7366657220746f206e6f6e20455243373231526560008201527f63656976657220696d706c656d656e7465720000000000000000000000000000602082015250565b60006134976032836123b1565b91506134a28261343b565b604082019050919050565b600060208201905081810360008301526134c68161348a565b9050919050565b60006134d882612461565b91507fffffffffffffffffffffffffffffffffffffffffffffffffffffffffffffffff82141561350b5761350a61308e565b5b600182019050919050565b7f4e487b7100000000000000000000000000000000000000000000000000000000600052601260045260246000fd5b600061355082612461565b915061355b83612461565b92508261356b5761356a613516565b5b828204905092915050565b600061358182612461565b915061358c83612461565b92508261359c5761359b613516565b5b828206905092915050565b7f4e487b7100000000000000000000000000000000000000000000000000000000600052603260045260246000fd5b60006135e182612461565b91506135ec83612461565b9250817fffffffffffffffffffffffffffffffffffffffffffffffffffffffffffffffff04831182151516156136255761362461308e565b5b828202905092915050565b600061363b82612461565b9150600082141561364f5761364e61308e565b5b600182039050919050565b7f537472696e67733a20686578206c656e67746820696e73756666696369656e74600082015250565b60006136906020836123b1565b915061369b8261365a565b602082019050919050565b600060208201905081810360008301526136bf81613683565b9050919050565b600081519050919050565b600082825260208201905092915050565b60006136ed826136c6565b6136f781856136d1565b93506137078185602086016123c2565b613710816123f5565b840191505092915050565b600060808201905061373060008301876124f6565b61373d60208301866124f6565b61374a60408301856125b9565b818103606083015261375c81846136e2565b905095945050505050565b60008151905061377681612317565b92915050565b600060208284031215613792576137916122e1565b5b60006137a084828501613767565b9150509291505056fea2646970667358221220bae4256821f90c395bdac191bdc29acaae3bd027466229dc893fd785245de47064736f6c634300080a0033",
  "immutableReferences": {},
  "source": "// SPDX-License-Identifier: MIT\npragma solidity >=0.4.22 <0.9.0;\n\nimport \"@openzeppelin/contracts/token/ERC721/ERC721.sol\";\nimport \"@openzeppelin/contracts/utils/Counters.sol\";\nimport \"@openzeppelin/contracts/access/Ownable.sol\";\nimport \"@openzeppelin/contracts/access/AccessControl.sol\";\n\ncontract ColorLand is ERC721, Ownable, AccessControl {\n    using Counters for Counters.Counter;\n    Counters.Counter private _tokenIds;\n    uint256 private _price;\n\n    bytes32 public constant MINTER_ROLE = keccak256(\"MINTER_ROLE\");\n    bytes32 public constant TRANSFER_ROLE = keccak256(\"TRANSFER_ROLE\");\n\n    constructor(uint256 initPrice) ERC721(\"ColorLand\", \"CLX\") {\n        _price = initPrice;\n        _setupRole(DEFAULT_ADMIN_ROLE, _msgSender());\n        _setupRole(MINTER_ROLE, _msgSender());\n    }\n\n    function getTokenIds() public view returns (uint256) {\n        return _tokenIds.current();\n    }\n\n    function getInitPrice() public view returns (uint256) {\n        return _price;\n    }\n\n    function supportsInterface(bytes4 interfaceId)\n        public\n        view\n        virtual\n        override(ERC721, AccessControl)\n        returns (bool)\n    {\n        return super.supportsInterface(interfaceId);\n    }\n\n    function getCurrentPrice() external view returns (uint256) {\n        return _price;\n    }\n\n    function setApprove(address marketAddress) public returns (bool) {\n        setApprovalForAll(marketAddress, true);\n        return true;\n    }\n\n    function getOwner() external view returns (address) {\n        address owner = Ownable.owner();\n        return owner;\n    }\n\n    function getTotal() external view returns (uint256) {\n        uint256 total = _tokenIds.current();\n        return total;\n    }\n\n    function mintLand(address receiver) external returns (uint256) {\n        _tokenIds.increment();\n\n        uint256 currentId = _tokenIds.current();\n        _mint(receiver, currentId);\n\n        return currentId;\n    }\n}\n",
  "sourcePath": "/Users/datphits/testweb3/src/contracts/ColorLand.sol",
  "compiler": {
    "name": "solc",
    "version": "0.8.10+commit.fc410830.Emscripten.clang"
  },
  "schemaVersion": "3.4.3",
  "updatedAt": "2022-02-28T03:24:09.163Z",
  "networkType": "ethereum",
  "devdoc": {
    "kind": "dev",
    "methods": {
      "approve(address,uint256)": {
        "details": "See {IERC721-approve}."
      },
      "balanceOf(address)": {
        "details": "See {IERC721-balanceOf}."
      },
      "getApproved(uint256)": {
        "details": "See {IERC721-getApproved}."
      },
      "getRoleAdmin(bytes32)": {
        "details": "Returns the admin role that controls `role`. See {grantRole} and {revokeRole}. To change a role's admin, use {_setRoleAdmin}."
      },
      "grantRole(bytes32,address)": {
        "details": "Grants `role` to `account`. If `account` had not been already granted `role`, emits a {RoleGranted} event. Requirements: - the caller must have ``role``'s admin role."
      },
      "hasRole(bytes32,address)": {
        "details": "Returns `true` if `account` has been granted `role`."
      },
      "isApprovedForAll(address,address)": {
        "details": "See {IERC721-isApprovedForAll}."
      },
      "name()": {
        "details": "See {IERC721Metadata-name}."
      },
      "owner()": {
        "details": "Returns the address of the current owner."
      },
      "ownerOf(uint256)": {
        "details": "See {IERC721-ownerOf}."
      },
      "renounceOwnership()": {
        "details": "Leaves the contract without owner. It will not be possible to call `onlyOwner` functions anymore. Can only be called by the current owner. NOTE: Renouncing ownership will leave the contract without an owner, thereby removing any functionality that is only available to the owner."
      },
      "renounceRole(bytes32,address)": {
        "details": "Revokes `role` from the calling account. Roles are often managed via {grantRole} and {revokeRole}: this function's purpose is to provide a mechanism for accounts to lose their privileges if they are compromised (such as when a trusted device is misplaced). If the calling account had been revoked `role`, emits a {RoleRevoked} event. Requirements: - the caller must be `account`."
      },
      "revokeRole(bytes32,address)": {
        "details": "Revokes `role` from `account`. If `account` had been granted `role`, emits a {RoleRevoked} event. Requirements: - the caller must have ``role``'s admin role."
      },
      "safeTransferFrom(address,address,uint256)": {
        "details": "See {IERC721-safeTransferFrom}."
      },
      "safeTransferFrom(address,address,uint256,bytes)": {
        "details": "See {IERC721-safeTransferFrom}."
      },
      "setApprovalForAll(address,bool)": {
        "details": "See {IERC721-setApprovalForAll}."
      },
      "symbol()": {
        "details": "See {IERC721Metadata-symbol}."
      },
      "tokenURI(uint256)": {
        "details": "See {IERC721Metadata-tokenURI}."
      },
      "transferFrom(address,address,uint256)": {
        "details": "See {IERC721-transferFrom}."
      },
      "transferOwnership(address)": {
        "details": "Transfers ownership of the contract to a new account (`newOwner`). Can only be called by the current owner."
      }
    },
    "version": 1
  },
  "userdoc": {
    "kind": "user",
    "methods": {},
    "version": 1
  }
}