{
  "contractName": "MarketPlace",
  "abi": [
    {
      "inputs": [
        {
          "internalType": "contract ColorLand",
          "name": "landContractAddress",
          "type": "address"
        }
      ],
      "stateMutability": "nonpayable",
      "type": "constructor"
    },
    {
      "inputs": [],
      "name": "buyLand",
      "outputs": [
        {
          "internalType": "uint256",
          "name": "",
          "type": "uint256"
        }
      ],
      "stateMutability": "nonpayable",
      "type": "function"
    }
  ],
  "bytecode": "0x608060405234801561001057600080fd5b50604051610343380380610343833981810160405281019061003291906100ed565b806000806101000a81548173ffffffffffffffffffffffffffffffffffffffff021916908373ffffffffffffffffffffffffffffffffffffffff1602179055505061011a565b600080fd5b600073ffffffffffffffffffffffffffffffffffffffff82169050919050565b60006100a88261007d565b9050919050565b60006100ba8261009d565b9050919050565b6100ca816100af565b81146100d557600080fd5b50565b6000815190506100e7816100c1565b92915050565b60006020828403121561010357610102610078565b5b6000610111848285016100d8565b91505092915050565b61021a806101296000396000f3fe608060405234801561001057600080fd5b506004361061002b5760003560e01c8063469327dd14610030575b600080fd5b61003861004e565b604051610045919061010f565b60405180910390f35b60008060008054906101000a900473ffffffffffffffffffffffffffffffffffffffff1673ffffffffffffffffffffffffffffffffffffffff16630d4e96a3336040518263ffffffff1660e01b81526004016100aa919061016b565b6020604051808303816000875af11580156100c9573d6000803e3d6000fd5b505050506040513d601f19601f820116820180604052508101906100ed91906101b7565b90508091505090565b6000819050919050565b610109816100f6565b82525050565b60006020820190506101246000830184610100565b92915050565b600073ffffffffffffffffffffffffffffffffffffffff82169050919050565b60006101558261012a565b9050919050565b6101658161014a565b82525050565b6000602082019050610180600083018461015c565b92915050565b600080fd5b610194816100f6565b811461019f57600080fd5b50565b6000815190506101b18161018b565b92915050565b6000602082840312156101cd576101cc610186565b5b60006101db848285016101a2565b9150509291505056fea264697066735822122050abe4b5f990e5642c32e863d7a5489f496f45578c923d46c4ea55786210e74e64736f6c634300080a0033",
  "immutableReferences": {},
  "source": "// SPDX-License-Identifier: MIT\npragma solidity >=0.4.22 <0.9.0;\n\nimport \"./ColorLand.sol\";\n\ncontract MarketPlace {\n    ColorLand private _land;\n\n    constructor(ColorLand landContractAddress) {\n        _land = landContractAddress;\n    }\n\n    function buyLand() public returns (uint256) {\n        uint256 landId = _land.mintLand(msg.sender);\n        return landId;\n    }\n}\n",
  "sourcePath": "/Users/datphits/testweb3/src/contracts/MarketplaceLand.sol",
  "compiler": {
    "name": "solc",
    "version": "0.8.10+commit.fc410830.Emscripten.clang"
  },
  "schemaVersion": "3.4.3",
  "updatedAt": "2021-12-21T15:33:19.072Z",
  "devdoc": {
    "kind": "dev",
    "methods": {},
    "version": 1
  },
  "userdoc": {
    "kind": "user",
    "methods": {},
    "version": 1
  }
}