{
  "contractName": "MarketplaceLand",
  "abi": [
    {
      "inputs": [
        {
          "internalType": "contract ColorLand",
          "name": "landContractAddress",
          "type": "address"
        }
      ],
      "stateMutability": "nonpayable",
      "type": "constructor"
    },
    {
      "inputs": [
        {
          "internalType": "uint256",
          "name": "",
          "type": "uint256"
        }
      ],
      "name": "nftListOfUser",
      "outputs": [
        {
          "internalType": "uint256",
          "name": "",
          "type": "uint256"
        }
      ],
      "stateMutability": "view",
      "type": "function"
    },
    {
      "inputs": [
        {
          "internalType": "address",
          "name": "user",
          "type": "address"
        }
      ],
      "name": "getNftOfUser",
      "outputs": [
        {
          "internalType": "uint256[]",
          "name": "",
          "type": "uint256[]"
        }
      ],
      "stateMutability": "nonpayable",
      "type": "function"
    },
    {
      "inputs": [],
      "name": "buyLand",
      "outputs": [
        {
          "internalType": "uint256",
          "name": "",
          "type": "uint256"
        }
      ],
      "stateMutability": "payable",
      "type": "function"
    }
  ],
  "bytecode": "0x608060405234801561001057600080fd5b506040516109dd3803806109dd833981810160405281019061003291906100ed565b806000806101000a81548173ffffffffffffffffffffffffffffffffffffffff021916908373ffffffffffffffffffffffffffffffffffffffff1602179055505061011a565b600080fd5b600073ffffffffffffffffffffffffffffffffffffffff82169050919050565b60006100a88261007d565b9050919050565b60006100ba8261009d565b9050919050565b6100ca816100af565b81146100d557600080fd5b50565b6000815190506100e7816100c1565b92915050565b60006020828403121561010357610102610078565b5b6000610111848285016100d8565b91505092915050565b6108b4806101296000396000f3fe6080604052600436106100345760003560e01c8063469327dd1461003957806372e6f32914610057578063c79d129614610094575b600080fd5b6100416100d1565b60405161004e919061049d565b60405180910390f35b34801561006357600080fd5b5061007e6004803603810190610079919061051b565b61025f565b60405161008b9190610606565b60405180910390f35b3480156100a057600080fd5b506100bb60048036038101906100b69190610654565b610460565b6040516100c8919061049d565b60405180910390f35b6000670de0b6b3a764000060008054906101000a900473ffffffffffffffffffffffffffffffffffffffff1673ffffffffffffffffffffffffffffffffffffffff1663eb91d37e6040518163ffffffff1660e01b8152600401602060405180830381865afa158015610147573d6000803e3d6000fd5b505050506040513d601f19601f8201168201806040525081019061016b9190610696565b61017591906106f2565b3410156101b7576040517f08c379a00000000000000000000000000000000000000000000000000000000081526004016101ae906107a9565b60405180910390fd5b60008060009054906101000a900473ffffffffffffffffffffffffffffffffffffffff1673ffffffffffffffffffffffffffffffffffffffff16630d4e96a3336040518263ffffffff1660e01b815260040161021391906107d8565b6020604051808303816000875af1158015610232573d6000803e3d6000fd5b505050506040513d601f19601f820116820180604052508101906102569190610696565b90508091505090565b60606000600190505b60008054906101000a900473ffffffffffffffffffffffffffffffffffffffff1673ffffffffffffffffffffffffffffffffffffffff1663775a25e36040518163ffffffff1660e01b8152600401602060405180830381865afa1580156102d3573d6000803e3d6000fd5b505050506040513d601f19601f820116820180604052508101906102f79190610696565b8111610407578273ffffffffffffffffffffffffffffffffffffffff1660008054906101000a900473ffffffffffffffffffffffffffffffffffffffff1673ffffffffffffffffffffffffffffffffffffffff16636352211e836040518263ffffffff1660e01b815260040161036d919061049d565b602060405180830381865afa15801561038a573d6000803e3d6000fd5b505050506040513d601f19601f820116820180604052508101906103ae9190610808565b73ffffffffffffffffffffffffffffffffffffffff1614156103f45760018190806001815401808255809150506001900390600052602060002001600090919091909150555b80806103ff90610835565b915050610268565b50600180548060200260200160405190810160405280929190818152602001828054801561045457602002820191906000526020600020905b815481526020019060010190808311610440575b50505050509050919050565b6001818154811061047057600080fd5b906000526020600020016000915090505481565b6000819050919050565b61049781610484565b82525050565b60006020820190506104b2600083018461048e565b92915050565b600080fd5b600073ffffffffffffffffffffffffffffffffffffffff82169050919050565b60006104e8826104bd565b9050919050565b6104f8816104dd565b811461050357600080fd5b50565b600081359050610515816104ef565b92915050565b600060208284031215610531576105306104b8565b5b600061053f84828501610506565b91505092915050565b600081519050919050565b600082825260208201905092915050565b6000819050602082019050919050565b61057d81610484565b82525050565b600061058f8383610574565b60208301905092915050565b6000602082019050919050565b60006105b382610548565b6105bd8185610553565b93506105c883610564565b8060005b838110156105f95781516105e08882610583565b97506105eb8361059b565b9250506001810190506105cc565b5085935050505092915050565b6000602082019050818103600083015261062081846105a8565b905092915050565b61063181610484565b811461063c57600080fd5b50565b60008135905061064e81610628565b92915050565b60006020828403121561066a576106696104b8565b5b60006106788482850161063f565b91505092915050565b60008151905061069081610628565b92915050565b6000602082840312156106ac576106ab6104b8565b5b60006106ba84828501610681565b91505092915050565b7f4e487b7100000000000000000000000000000000000000000000000000000000600052601160045260246000fd5b60006106fd82610484565b915061070883610484565b9250817fffffffffffffffffffffffffffffffffffffffffffffffffffffffffffffffff0483118215151615610741576107406106c3565b5b828202905092915050565b600082825260208201905092915050565b7f4572726f722c20546f6b656e20636f737473206d6f7265000000000000000000600082015250565b600061079360178361074c565b915061079e8261075d565b602082019050919050565b600060208201905081810360008301526107c281610786565b9050919050565b6107d2816104dd565b82525050565b60006020820190506107ed60008301846107c9565b92915050565b600081519050610802816104ef565b92915050565b60006020828403121561081e5761081d6104b8565b5b600061082c848285016107f3565b91505092915050565b600061084082610484565b91507fffffffffffffffffffffffffffffffffffffffffffffffffffffffffffffffff821415610873576108726106c3565b5b60018201905091905056fea2646970667358221220a69e3d3578d88d4dd16a76c919e1379e41f05dbfe5c519a67ad828b899a8db2264736f6c634300080a0033",
  "immutableReferences": {},
  "source": "// SPDX-License-Identifier: MIT\npragma solidity >=0.4.22 <0.9.0;\n\nimport \"./ColorLand.sol\";\n\ncontract MarketplaceLand {\n    ColorLand private _land;\n    uint256[] public nftListOfUser;\n\n    constructor(ColorLand landContractAddress) {\n        _land = landContractAddress;\n    }\n\n    function getNftOfUser(address user) public returns (uint256[] memory) {\n        for (uint256 i = 1; i <= _land.getTotal(); i++) {\n            if (_land.ownerOf(i) == user) {\n                nftListOfUser.push(i);\n            }\n        }\n        return nftListOfUser;\n    }\n\n    function buyLand() public payable returns (uint256) {\n        require(\n            msg.value >= _land.getCurrentPrice() * 10**18,\n            \"Error, Token costs more\"\n        );\n        uint256 landId = _land.mintLand(msg.sender);\n        return landId;\n    }\n}\n",
  "sourcePath": "/Users/datphits/testweb3/src/contracts/MarketplaceLand.sol",
  "compiler": {
    "name": "solc",
    "version": "0.8.10+commit.fc410830.Emscripten.clang"
  },
  "schemaVersion": "3.4.3",
  "updatedAt": "2021-12-23T11:29:14.646Z",
  "devdoc": {
    "kind": "dev",
    "methods": {},
    "version": 1
  },
  "userdoc": {
    "kind": "user",
    "methods": {},
    "version": 1
  }
}