{
  "contractName": "MarketplaceLand",
  "abi": [
    {
      "inputs": [
        {
          "internalType": "contract ColorLand",
          "name": "landContractAddress",
          "type": "address"
        }
      ],
      "stateMutability": "nonpayable",
      "type": "constructor"
    },
    {
      "inputs": [
        {
          "internalType": "uint256",
          "name": "",
          "type": "uint256"
        }
      ],
      "name": "addressListOfNft",
      "outputs": [
        {
          "internalType": "address",
          "name": "",
          "type": "address"
        }
      ],
      "stateMutability": "view",
      "type": "function",
      "constant": true
    },
    {
      "inputs": [
        {
          "internalType": "uint256",
          "name": "",
          "type": "uint256"
        }
      ],
      "name": "forSellPriceList",
      "outputs": [
        {
          "internalType": "uint256",
          "name": "",
          "type": "uint256"
        }
      ],
      "stateMutability": "view",
      "type": "function",
      "constant": true
    },
    {
      "inputs": [
        {
          "internalType": "uint256",
          "name": "",
          "type": "uint256"
        }
      ],
      "name": "lastSellPriceList",
      "outputs": [
        {
          "internalType": "uint256",
          "name": "",
          "type": "uint256"
        }
      ],
      "stateMutability": "view",
      "type": "function",
      "constant": true
    },
    {
      "inputs": [
        {
          "internalType": "uint256",
          "name": "",
          "type": "uint256"
        }
      ],
      "name": "nftListOfUser",
      "outputs": [
        {
          "internalType": "uint256",
          "name": "",
          "type": "uint256"
        }
      ],
      "stateMutability": "view",
      "type": "function",
      "constant": true
    },
    {
      "inputs": [
        {
          "internalType": "uint256",
          "name": "index",
          "type": "uint256"
        },
        {
          "internalType": "uint256",
          "name": "price",
          "type": "uint256"
        }
      ],
      "name": "setSaleNfts",
      "outputs": [
        {
          "internalType": "uint256",
          "name": "",
          "type": "uint256"
        }
      ],
      "stateMutability": "nonpayable",
      "type": "function"
    },
    {
      "inputs": [
        {
          "internalType": "uint256",
          "name": "index",
          "type": "uint256"
        }
      ],
      "name": "buyNftFromMarket",
      "outputs": [
        {
          "internalType": "uint256",
          "name": "",
          "type": "uint256"
        }
      ],
      "stateMutability": "payable",
      "type": "function",
      "payable": true
    },
    {
      "inputs": [],
      "name": "buyLand",
      "outputs": [
        {
          "internalType": "uint256",
          "name": "",
          "type": "uint256"
        }
      ],
      "stateMutability": "payable",
      "type": "function",
      "payable": true
    },
    {
      "inputs": [],
      "name": "getAddressOfNfts",
      "outputs": [
        {
          "internalType": "address[]",
          "name": "",
          "type": "address[]"
        }
      ],
      "stateMutability": "nonpayable",
      "type": "function"
    },
    {
      "inputs": [],
      "name": "getLastSellPrice",
      "outputs": [
        {
          "internalType": "uint256[]",
          "name": "",
          "type": "uint256[]"
        }
      ],
      "stateMutability": "nonpayable",
      "type": "function"
    },
    {
      "inputs": [],
      "name": "getForSellPrice",
      "outputs": [
        {
          "internalType": "uint256[]",
          "name": "",
          "type": "uint256[]"
        }
      ],
      "stateMutability": "nonpayable",
      "type": "function"
    },
    {
      "inputs": [
        {
          "internalType": "address",
          "name": "user",
          "type": "address"
        }
      ],
      "name": "getNftOfUser",
      "outputs": [
        {
          "internalType": "uint256[]",
          "name": "",
          "type": "uint256[]"
        }
      ],
      "stateMutability": "nonpayable",
      "type": "function"
    }
  ],
  "bytecode": "0x60806040523480156200001157600080fd5b5060405162001740380380620017408339818101604052810190620000379190620000fc565b806000806101000a81548173ffffffffffffffffffffffffffffffffffffffff021916908373ffffffffffffffffffffffffffffffffffffffff160217905550506200012e565b600080fd5b600073ffffffffffffffffffffffffffffffffffffffff82169050919050565b6000620000b08262000083565b9050919050565b6000620000c482620000a3565b9050919050565b620000d681620000b7565b8114620000e257600080fd5b50565b600081519050620000f681620000cb565b92915050565b6000602082840312156200011557620001146200007e565b5b60006200012584828501620000e5565b91505092915050565b611602806200013e6000396000f3fe60806040526004361061009c5760003560e01c8063563700a311610064578063563700a31461019457806372e6f329146101d15780638197e5991461020e57806385b41fbc14610239578063c79d129614610264578063dc8a97ea146102a15761009c565b80630653ad92146100a1578063352359a7146100cc5780633ffedef8146100fc57806340fe4bc214610139578063469327dd14610176575b600080fd5b3480156100ad57600080fd5b506100b66102de565b6040516100c39190611143565b60405180910390f35b6100e660048036038101906100e19190611196565b610425565b6040516100f391906111d2565b60405180910390f35b34801561010857600080fd5b50610123600480360381019061011e9190611196565b61073d565b60405161013091906111d2565b60405180910390f35b34801561014557600080fd5b50610160600480360381019061015b9190611196565b610761565b60405161016d91906111d2565b60405180910390f35b61017e610785565b60405161018b91906111d2565b60405180910390f35b3480156101a057600080fd5b506101bb60048036038101906101b691906111ed565b610a70565b6040516101c891906111d2565b60405180910390f35b3480156101dd57600080fd5b506101f860048036038101906101f3919061128b565b610a96565b6040516102059190611143565b60405180910390f35b34801561021a57600080fd5b50610223610c97565b6040516102309190611143565b60405180910390f35b34801561024557600080fd5b5061024e610dde565b60405161025b9190611376565b60405180910390f35b34801561027057600080fd5b5061028b60048036038101906102869190611196565b611018565b60405161029891906111d2565b60405180910390f35b3480156102ad57600080fd5b506102c860048036038101906102c39190611196565b61103c565b6040516102d591906113a7565b60405180910390f35b60606000600190505b60008054906101000a900473ffffffffffffffffffffffffffffffffffffffff1673ffffffffffffffffffffffffffffffffffffffff1663775a25e36040518163ffffffff1660e01b8152600401602060405180830381865afa158015610352573d6000803e3d6000fd5b505050506040513d601f19601f8201168201806040525081019061037691906113d7565b81116103ce5760046005600083815260200190815260200160002060010154908060018154018082558091505060019003906000526020600020016000909190919091505580806103c690611433565b9150506102e7565b50600480548060200260200160405190810160405280929190818152602001828054801561041b57602002820191906000526020600020905b815481526020019060010190808311610407575b5050505050905090565b6000670de0b6b3a76400006005600084815260200190815260200160002060010154610451919061147c565b341015610493576040517f08c379a000000000000000000000000000000000000000000000000000000000815260040161048a90611533565b60405180910390fd5b6000600560008481526020019081526020016000206001015414156104b757600080fd5b60008054906101000a900473ffffffffffffffffffffffffffffffffffffffff1673ffffffffffffffffffffffffffffffffffffffff16636352211e836040518263ffffffff1660e01b815260040161051091906111d2565b602060405180830381865afa15801561052d573d6000803e3d6000fd5b505050506040513d601f19601f820116820180604052508101906105519190611568565b73ffffffffffffffffffffffffffffffffffffffff166108fc670de0b6b3a76400006005600086815260200190815260200160002060010154610594919061147c565b9081150290604051600060405180830381858888f193505050501580156105bf573d6000803e3d6000fd5b5060008054906101000a900473ffffffffffffffffffffffffffffffffffffffff1673ffffffffffffffffffffffffffffffffffffffff166342842e0e60008054906101000a900473ffffffffffffffffffffffffffffffffffffffff1673ffffffffffffffffffffffffffffffffffffffff16636352211e856040518263ffffffff1660e01b815260040161065591906111d2565b602060405180830381865afa158015610672573d6000803e3d6000fd5b505050506040513d601f19601f820116820180604052508101906106969190611568565b33856040518463ffffffff1660e01b81526004016106b693929190611595565b600060405180830381600087803b1580156106d057600080fd5b505af11580156106e4573d6000803e3d6000fd5b505050506005600083815260200190815260200160002060010154600560008481526020019081526020016000206000018190555060006005600084815260200190815260200160002060010181905550819050919050565b6003818154811061074d57600080fd5b906000526020600020016000915090505481565b6004818154811061077157600080fd5b906000526020600020016000915090505481565b6000670de0b6b3a764000060008054906101000a900473ffffffffffffffffffffffffffffffffffffffff1673ffffffffffffffffffffffffffffffffffffffff1663eb91d37e6040518163ffffffff1660e01b8152600401602060405180830381865afa1580156107fb573d6000803e3d6000fd5b505050506040513d601f19601f8201168201806040525081019061081f91906113d7565b610829919061147c565b34101561086b576040517f08c379a000000000000000000000000000000000000000000000000000000000815260040161086290611533565b60405180910390fd5b60008060009054906101000a900473ffffffffffffffffffffffffffffffffffffffff1673ffffffffffffffffffffffffffffffffffffffff16630d4e96a3336040518263ffffffff1660e01b81526004016108c791906113a7565b6020604051808303816000875af11580156108e6573d6000803e3d6000fd5b505050506040513d601f19601f8201168201806040525081019061090a91906113d7565b9050604051806040016040528060008054906101000a900473ffffffffffffffffffffffffffffffffffffffff1673ffffffffffffffffffffffffffffffffffffffff166351b68ab96040518163ffffffff1660e01b8152600401602060405180830381865afa158015610982573d6000803e3d6000fd5b505050506040513d601f19601f820116820180604052508101906109a691906113d7565b81526020016000815250600560008060009054906101000a900473ffffffffffffffffffffffffffffffffffffffff1673ffffffffffffffffffffffffffffffffffffffff166367f718a96040518163ffffffff1660e01b8152600401602060405180830381865afa158015610a20573d6000803e3d6000fd5b505050506040513d601f19601f82011682018060405250810190610a4491906113d7565b815260200190815260200160002060008201518160000155602082015181600101559050508091505090565b600081600560008581526020019081526020016000206001018190555082905092915050565b60606000600190505b60008054906101000a900473ffffffffffffffffffffffffffffffffffffffff1673ffffffffffffffffffffffffffffffffffffffff1663775a25e36040518163ffffffff1660e01b8152600401602060405180830381865afa158015610b0a573d6000803e3d6000fd5b505050506040513d601f19601f82011682018060405250810190610b2e91906113d7565b8111610c3e578273ffffffffffffffffffffffffffffffffffffffff1660008054906101000a900473ffffffffffffffffffffffffffffffffffffffff1673ffffffffffffffffffffffffffffffffffffffff16636352211e836040518263ffffffff1660e01b8152600401610ba491906111d2565b602060405180830381865afa158015610bc1573d6000803e3d6000fd5b505050506040513d601f19601f82011682018060405250810190610be59190611568565b73ffffffffffffffffffffffffffffffffffffffff161415610c2b5760018190806001815401808255809150506001900390600052602060002001600090919091909150555b8080610c3690611433565b915050610a9f565b506001805480602002602001604051908101604052809291908181526020018280548015610c8b57602002820191906000526020600020905b815481526020019060010190808311610c77575b50505050509050919050565b60606000600190505b60008054906101000a900473ffffffffffffffffffffffffffffffffffffffff1673ffffffffffffffffffffffffffffffffffffffff1663775a25e36040518163ffffffff1660e01b8152600401602060405180830381865afa158015610d0b573d6000803e3d6000fd5b505050506040513d601f19601f82011682018060405250810190610d2f91906113d7565b8111610d87576003600560008381526020019081526020016000206000015490806001815401808255809150506001900390600052602060002001600090919091909150558080610d7f90611433565b915050610ca0565b506003805480602002602001604051908101604052809291908181526020018280548015610dd457602002820191906000526020600020905b815481526020019060010190808311610dc0575b5050505050905090565b60606000600190505b60008054906101000a900473ffffffffffffffffffffffffffffffffffffffff1673ffffffffffffffffffffffffffffffffffffffff1663775a25e36040518163ffffffff1660e01b8152600401602060405180830381865afa158015610e52573d6000803e3d6000fd5b505050506040513d601f19601f82011682018060405250810190610e7691906113d7565b8111610f8b57600260008054906101000a900473ffffffffffffffffffffffffffffffffffffffff1673ffffffffffffffffffffffffffffffffffffffff16636352211e836040518263ffffffff1660e01b8152600401610ed791906111d2565b602060405180830381865afa158015610ef4573d6000803e3d6000fd5b505050506040513d601f19601f82011682018060405250810190610f189190611568565b9080600181540180825580915050600190039060005260206000200160009091909190916101000a81548173ffffffffffffffffffffffffffffffffffffffff021916908373ffffffffffffffffffffffffffffffffffffffff1602179055508080610f8390611433565b915050610de7565b50600280548060200260200160405190810160405280929190818152602001828054801561100e57602002820191906000526020600020905b8160009054906101000a900473ffffffffffffffffffffffffffffffffffffffff1673ffffffffffffffffffffffffffffffffffffffff1681526020019060010190808311610fc4575b5050505050905090565b6001818154811061102857600080fd5b906000526020600020016000915090505481565b6002818154811061104c57600080fd5b906000526020600020016000915054906101000a900473ffffffffffffffffffffffffffffffffffffffff1681565b600081519050919050565b600082825260208201905092915050565b6000819050602082019050919050565b6000819050919050565b6110ba816110a7565b82525050565b60006110cc83836110b1565b60208301905092915050565b6000602082019050919050565b60006110f08261107b565b6110fa8185611086565b935061110583611097565b8060005b8381101561113657815161111d88826110c0565b9750611128836110d8565b925050600181019050611109565b5085935050505092915050565b6000602082019050818103600083015261115d81846110e5565b905092915050565b600080fd5b611173816110a7565b811461117e57600080fd5b50565b6000813590506111908161116a565b92915050565b6000602082840312156111ac576111ab611165565b5b60006111ba84828501611181565b91505092915050565b6111cc816110a7565b82525050565b60006020820190506111e760008301846111c3565b92915050565b6000806040838503121561120457611203611165565b5b600061121285828601611181565b925050602061122385828601611181565b9150509250929050565b600073ffffffffffffffffffffffffffffffffffffffff82169050919050565b60006112588261122d565b9050919050565b6112688161124d565b811461127357600080fd5b50565b6000813590506112858161125f565b92915050565b6000602082840312156112a1576112a0611165565b5b60006112af84828501611276565b91505092915050565b600081519050919050565b600082825260208201905092915050565b6000819050602082019050919050565b6112ed8161124d565b82525050565b60006112ff83836112e4565b60208301905092915050565b6000602082019050919050565b6000611323826112b8565b61132d81856112c3565b9350611338836112d4565b8060005b8381101561136957815161135088826112f3565b975061135b8361130b565b92505060018101905061133c565b5085935050505092915050565b600060208201905081810360008301526113908184611318565b905092915050565b6113a18161124d565b82525050565b60006020820190506113bc6000830184611398565b92915050565b6000815190506113d18161116a565b92915050565b6000602082840312156113ed576113ec611165565b5b60006113fb848285016113c2565b91505092915050565b7f4e487b7100000000000000000000000000000000000000000000000000000000600052601160045260246000fd5b600061143e826110a7565b91507fffffffffffffffffffffffffffffffffffffffffffffffffffffffffffffffff82141561147157611470611404565b5b600182019050919050565b6000611487826110a7565b9150611492836110a7565b9250817fffffffffffffffffffffffffffffffffffffffffffffffffffffffffffffffff04831182151516156114cb576114ca611404565b5b828202905092915050565b600082825260208201905092915050565b7f4572726f722c20546f6b656e20636f737473206d6f7265000000000000000000600082015250565b600061151d6017836114d6565b9150611528826114e7565b602082019050919050565b6000602082019050818103600083015261154c81611510565b9050919050565b6000815190506115628161125f565b92915050565b60006020828403121561157e5761157d611165565b5b600061158c84828501611553565b91505092915050565b60006060820190506115aa6000830186611398565b6115b76020830185611398565b6115c460408301846111c3565b94935050505056fea26469706673582212207c897aa3dbbd97589e0a0d88ee0181a018068237bfca9329b730f50936a97aeb64736f6c634300080a0033",
  "immutableReferences": {},
  "source": "// SPDX-License-Identifier: MIT\npragma solidity >=0.4.22 <0.9.0;\n\nimport \"./ColorLand.sol\";\n\ncontract MarketplaceLand {\n    ColorLand private _land;\n    uint256[] public nftListOfUser;\n    address[] public addressListOfNft;\n    uint256[] public lastSellPriceList;\n    uint256[] public forSellPriceList;\n\n    struct LandInfo {\n        uint256 lastSellPrice;\n        uint256 forSalePrice; // 0 means: not for sale.\n    }\n\n    mapping(uint256 => LandInfo) private _landInfo;\n\n    constructor(ColorLand landContractAddress) {\n        _land = landContractAddress;\n    }\n\n    function setSaleNfts(uint256 index, uint256 price)\n        public\n        returns (uint256)\n    {\n        _landInfo[index].forSalePrice = price;\n        return index;\n    }\n\n    function buyNftFromMarket(uint256 index) public payable returns (uint256) {\n        require(\n            msg.value >= _landInfo[index].forSalePrice * 10**18,\n            \"Error, Token costs more\"\n        );\n        require(_landInfo[index].forSalePrice != uint256(0));\n        payable(_land.ownerOf(index)).transfer(\n            _landInfo[index].forSalePrice * 10**18\n        );\n        _land.safeTransferFrom(_land.ownerOf(index), msg.sender, index);\n        _landInfo[index].lastSellPrice = _landInfo[index].forSalePrice;\n        _landInfo[index].forSalePrice = 0;\n        return index;\n    }\n\n    function buyLand() public payable returns (uint256) {\n        require(\n            msg.value >= _land.getCurrentPrice() * 10**18,\n            \"Error, Token costs more\"\n        );\n        uint256 landId = _land.mintLand(msg.sender);\n        _landInfo[_land.getTokenIds()] = LandInfo({\n            lastSellPrice: _land.getInitPrice(),\n            forSalePrice: 0\n        });\n\n        return landId;\n    }\n\n    function getAddressOfNfts() public returns (address[] memory) {\n        for (uint256 i = 1; i <= _land.getTotal(); i++) {\n            addressListOfNft.push(_land.ownerOf(i));\n        }\n        return addressListOfNft;\n    }\n\n    function getLastSellPrice() public returns (uint256[] memory) {\n        for (uint256 i = 1; i <= _land.getTotal(); i++) {\n            lastSellPriceList.push(_landInfo[i].lastSellPrice);\n        }\n        return lastSellPriceList;\n    }\n\n    function getForSellPrice() public returns (uint256[] memory) {\n        for (uint256 i = 1; i <= _land.getTotal(); i++) {\n            forSellPriceList.push(_landInfo[i].forSalePrice);\n        }\n        return forSellPriceList;\n    }\n\n    function getNftOfUser(address user) public returns (uint256[] memory) {\n        for (uint256 i = 1; i <= _land.getTotal(); i++) {\n            if (_land.ownerOf(i) == user) {\n                nftListOfUser.push(i);\n            }\n        }\n        return nftListOfUser;\n    }\n}\n",
  "sourcePath": "/Users/datphits/testweb3/src/contracts/MarketplaceLand.sol",
  "compiler": {
    "name": "solc",
    "version": "0.8.10+commit.fc410830.Emscripten.clang"
  },
  "schemaVersion": "3.4.3",
  "updatedAt": "2022-02-28T03:24:09.181Z",
  "networkType": "ethereum",
  "devdoc": {
    "kind": "dev",
    "methods": {},
    "version": 1
  },
  "userdoc": {
    "kind": "user",
    "methods": {},
    "version": 1
  }
}