{
  "contractName": "MarketplaceLand",
  "abi": [
    {
      "inputs": [
        {
          "internalType": "contract ColorLand",
          "name": "landContractAddress",
          "type": "address"
        }
      ],
      "stateMutability": "nonpayable",
      "type": "constructor"
    },
    {
      "inputs": [
        {
          "internalType": "uint256",
          "name": "",
          "type": "uint256"
        }
      ],
      "name": "addressListOfNft",
      "outputs": [
        {
          "internalType": "address",
          "name": "",
          "type": "address"
        }
      ],
      "stateMutability": "view",
      "type": "function",
      "constant": true
    },
    {
      "inputs": [
        {
          "internalType": "uint256",
          "name": "",
          "type": "uint256"
        }
      ],
      "name": "forSellPriceList",
      "outputs": [
        {
          "internalType": "uint256",
          "name": "",
          "type": "uint256"
        }
      ],
      "stateMutability": "view",
      "type": "function",
      "constant": true
    },
    {
      "inputs": [
        {
          "internalType": "uint256",
          "name": "",
          "type": "uint256"
        }
      ],
      "name": "lastSellPriceList",
      "outputs": [
        {
          "internalType": "uint256",
          "name": "",
          "type": "uint256"
        }
      ],
      "stateMutability": "view",
      "type": "function",
      "constant": true
    },
    {
      "inputs": [
        {
          "internalType": "uint256",
          "name": "",
          "type": "uint256"
        }
      ],
      "name": "nftListOfUser",
      "outputs": [
        {
          "internalType": "uint256",
          "name": "",
          "type": "uint256"
        }
      ],
      "stateMutability": "view",
      "type": "function",
      "constant": true
    },
    {
      "inputs": [
        {
          "internalType": "uint256",
          "name": "index",
          "type": "uint256"
        },
        {
          "internalType": "uint256",
          "name": "price",
          "type": "uint256"
        }
      ],
      "name": "setSaleNfts",
      "outputs": [
        {
          "internalType": "uint256",
          "name": "",
          "type": "uint256"
        }
      ],
      "stateMutability": "nonpayable",
      "type": "function"
    },
    {
      "inputs": [
        {
          "internalType": "uint256",
          "name": "index",
          "type": "uint256"
        }
      ],
      "name": "buyNftFromMarket",
      "outputs": [
        {
          "internalType": "uint256",
          "name": "",
          "type": "uint256"
        }
      ],
      "stateMutability": "nonpayable",
      "type": "function"
    },
    {
      "inputs": [],
      "name": "buyLand",
      "outputs": [
        {
          "internalType": "uint256",
          "name": "",
          "type": "uint256"
        }
      ],
      "stateMutability": "payable",
      "type": "function",
      "payable": true
    },
    {
      "inputs": [],
      "name": "getAddressOfNfts",
      "outputs": [
        {
          "internalType": "address[]",
          "name": "",
          "type": "address[]"
        }
      ],
      "stateMutability": "nonpayable",
      "type": "function"
    },
    {
      "inputs": [],
      "name": "getLastSellPrice",
      "outputs": [
        {
          "internalType": "uint256[]",
          "name": "",
          "type": "uint256[]"
        }
      ],
      "stateMutability": "nonpayable",
      "type": "function"
    },
    {
      "inputs": [],
      "name": "getForSellPrice",
      "outputs": [
        {
          "internalType": "uint256[]",
          "name": "",
          "type": "uint256[]"
        }
      ],
      "stateMutability": "nonpayable",
      "type": "function"
    },
    {
      "inputs": [
        {
          "internalType": "address",
          "name": "user",
          "type": "address"
        }
      ],
      "name": "getNftOfUser",
      "outputs": [
        {
          "internalType": "uint256[]",
          "name": "",
          "type": "uint256[]"
        }
      ],
      "stateMutability": "nonpayable",
      "type": "function"
    }
  ],
  "bytecode": "0x60806040523480156200001157600080fd5b5060405162001568380380620015688339818101604052810190620000379190620000fc565b806000806101000a81548173ffffffffffffffffffffffffffffffffffffffff021916908373ffffffffffffffffffffffffffffffffffffffff160217905550506200012e565b600080fd5b600073ffffffffffffffffffffffffffffffffffffffff82169050919050565b6000620000b08262000083565b9050919050565b6000620000c482620000a3565b9050919050565b620000d681620000b7565b8114620000e257600080fd5b50565b600081519050620000f681620000cb565b92915050565b6000602082840312156200011557620001146200007e565b5b60006200012584828501620000e5565b91505092915050565b61142a806200013e6000396000f3fe60806040526004361061009c5760003560e01c8063563700a311610064578063563700a3146101a157806372e6f329146101de5780638197e5991461021b57806385b41fbc14610246578063c79d129614610271578063dc8a97ea146102ae5761009c565b80630653ad92146100a1578063352359a7146100cc5780633ffedef81461010957806340fe4bc214610146578063469327dd14610183575b600080fd5b3480156100ad57600080fd5b506100b66102eb565b6040516100c39190610f6b565b60405180910390f35b3480156100d857600080fd5b506100f360048036038101906100ee9190610fbe565b610432565b6040516101009190610ffa565b60405180910390f35b34801561011557600080fd5b50610130600480360381019061012b9190610fbe565b610565565b60405161013d9190610ffa565b60405180910390f35b34801561015257600080fd5b5061016d60048036038101906101689190610fbe565b610589565b60405161017a9190610ffa565b60405180910390f35b61018b6105ad565b6040516101989190610ffa565b60405180910390f35b3480156101ad57600080fd5b506101c860048036038101906101c39190611015565b610898565b6040516101d59190610ffa565b60405180910390f35b3480156101ea57600080fd5b50610205600480360381019061020091906110b3565b6108be565b6040516102129190610f6b565b60405180910390f35b34801561022757600080fd5b50610230610abf565b60405161023d9190610f6b565b60405180910390f35b34801561025257600080fd5b5061025b610c06565b604051610268919061119e565b60405180910390f35b34801561027d57600080fd5b5061029860048036038101906102939190610fbe565b610e40565b6040516102a59190610ffa565b60405180910390f35b3480156102ba57600080fd5b506102d560048036038101906102d09190610fbe565b610e64565b6040516102e291906111cf565b60405180910390f35b60606000600190505b60008054906101000a900473ffffffffffffffffffffffffffffffffffffffff1673ffffffffffffffffffffffffffffffffffffffff1663775a25e36040518163ffffffff1660e01b8152600401602060405180830381865afa15801561035f573d6000803e3d6000fd5b505050506040513d601f19601f8201168201806040525081019061038391906111ff565b81116103db5760046005600083815260200190815260200160002060010154908060018154018082558091505060019003906000526020600020016000909190919091505580806103d39061125b565b9150506102f4565b50600480548060200260200160405190810160405280929190818152602001828054801561042857602002820191906000526020600020905b815481526020019060010190808311610414575b5050505050905090565b60008060009054906101000a900473ffffffffffffffffffffffffffffffffffffffff1673ffffffffffffffffffffffffffffffffffffffff166342842e0e60008054906101000a900473ffffffffffffffffffffffffffffffffffffffff1673ffffffffffffffffffffffffffffffffffffffff16636352211e856040518263ffffffff1660e01b81526004016104ca9190610ffa565b602060405180830381865afa1580156104e7573d6000803e3d6000fd5b505050506040513d601f19601f8201168201806040525081019061050b91906112b9565b33856040518463ffffffff1660e01b815260040161052b939291906112e6565b600060405180830381600087803b15801561054557600080fd5b505af1158015610559573d6000803e3d6000fd5b50505050819050919050565b6003818154811061057557600080fd5b906000526020600020016000915090505481565b6004818154811061059957600080fd5b906000526020600020016000915090505481565b6000670de0b6b3a764000060008054906101000a900473ffffffffffffffffffffffffffffffffffffffff1673ffffffffffffffffffffffffffffffffffffffff1663eb91d37e6040518163ffffffff1660e01b8152600401602060405180830381865afa158015610623573d6000803e3d6000fd5b505050506040513d601f19601f8201168201806040525081019061064791906111ff565b610651919061131d565b341015610693576040517f08c379a000000000000000000000000000000000000000000000000000000000815260040161068a906113d4565b60405180910390fd5b60008060009054906101000a900473ffffffffffffffffffffffffffffffffffffffff1673ffffffffffffffffffffffffffffffffffffffff16630d4e96a3336040518263ffffffff1660e01b81526004016106ef91906111cf565b6020604051808303816000875af115801561070e573d6000803e3d6000fd5b505050506040513d601f19601f8201168201806040525081019061073291906111ff565b9050604051806040016040528060008054906101000a900473ffffffffffffffffffffffffffffffffffffffff1673ffffffffffffffffffffffffffffffffffffffff166351b68ab96040518163ffffffff1660e01b8152600401602060405180830381865afa1580156107aa573d6000803e3d6000fd5b505050506040513d601f19601f820116820180604052508101906107ce91906111ff565b81526020016000815250600560008060009054906101000a900473ffffffffffffffffffffffffffffffffffffffff1673ffffffffffffffffffffffffffffffffffffffff166367f718a96040518163ffffffff1660e01b8152600401602060405180830381865afa158015610848573d6000803e3d6000fd5b505050506040513d601f19601f8201168201806040525081019061086c91906111ff565b815260200190815260200160002060008201518160000155602082015181600101559050508091505090565b600081600560008581526020019081526020016000206001018190555082905092915050565b60606000600190505b60008054906101000a900473ffffffffffffffffffffffffffffffffffffffff1673ffffffffffffffffffffffffffffffffffffffff1663775a25e36040518163ffffffff1660e01b8152600401602060405180830381865afa158015610932573d6000803e3d6000fd5b505050506040513d601f19601f8201168201806040525081019061095691906111ff565b8111610a66578273ffffffffffffffffffffffffffffffffffffffff1660008054906101000a900473ffffffffffffffffffffffffffffffffffffffff1673ffffffffffffffffffffffffffffffffffffffff16636352211e836040518263ffffffff1660e01b81526004016109cc9190610ffa565b602060405180830381865afa1580156109e9573d6000803e3d6000fd5b505050506040513d601f19601f82011682018060405250810190610a0d91906112b9565b73ffffffffffffffffffffffffffffffffffffffff161415610a535760018190806001815401808255809150506001900390600052602060002001600090919091909150555b8080610a5e9061125b565b9150506108c7565b506001805480602002602001604051908101604052809291908181526020018280548015610ab357602002820191906000526020600020905b815481526020019060010190808311610a9f575b50505050509050919050565b60606000600190505b60008054906101000a900473ffffffffffffffffffffffffffffffffffffffff1673ffffffffffffffffffffffffffffffffffffffff1663775a25e36040518163ffffffff1660e01b8152600401602060405180830381865afa158015610b33573d6000803e3d6000fd5b505050506040513d601f19601f82011682018060405250810190610b5791906111ff565b8111610baf576003600560008381526020019081526020016000206000015490806001815401808255809150506001900390600052602060002001600090919091909150558080610ba79061125b565b915050610ac8565b506003805480602002602001604051908101604052809291908181526020018280548015610bfc57602002820191906000526020600020905b815481526020019060010190808311610be8575b5050505050905090565b60606000600190505b60008054906101000a900473ffffffffffffffffffffffffffffffffffffffff1673ffffffffffffffffffffffffffffffffffffffff1663775a25e36040518163ffffffff1660e01b8152600401602060405180830381865afa158015610c7a573d6000803e3d6000fd5b505050506040513d601f19601f82011682018060405250810190610c9e91906111ff565b8111610db357600260008054906101000a900473ffffffffffffffffffffffffffffffffffffffff1673ffffffffffffffffffffffffffffffffffffffff16636352211e836040518263ffffffff1660e01b8152600401610cff9190610ffa565b602060405180830381865afa158015610d1c573d6000803e3d6000fd5b505050506040513d601f19601f82011682018060405250810190610d4091906112b9565b9080600181540180825580915050600190039060005260206000200160009091909190916101000a81548173ffffffffffffffffffffffffffffffffffffffff021916908373ffffffffffffffffffffffffffffffffffffffff1602179055508080610dab9061125b565b915050610c0f565b506002805480602002602001604051908101604052809291908181526020018280548015610e3657602002820191906000526020600020905b8160009054906101000a900473ffffffffffffffffffffffffffffffffffffffff1673ffffffffffffffffffffffffffffffffffffffff1681526020019060010190808311610dec575b5050505050905090565b60018181548110610e5057600080fd5b906000526020600020016000915090505481565b60028181548110610e7457600080fd5b906000526020600020016000915054906101000a900473ffffffffffffffffffffffffffffffffffffffff1681565b600081519050919050565b600082825260208201905092915050565b6000819050602082019050919050565b6000819050919050565b610ee281610ecf565b82525050565b6000610ef48383610ed9565b60208301905092915050565b6000602082019050919050565b6000610f1882610ea3565b610f228185610eae565b9350610f2d83610ebf565b8060005b83811015610f5e578151610f458882610ee8565b9750610f5083610f00565b925050600181019050610f31565b5085935050505092915050565b60006020820190508181036000830152610f858184610f0d565b905092915050565b600080fd5b610f9b81610ecf565b8114610fa657600080fd5b50565b600081359050610fb881610f92565b92915050565b600060208284031215610fd457610fd3610f8d565b5b6000610fe284828501610fa9565b91505092915050565b610ff481610ecf565b82525050565b600060208201905061100f6000830184610feb565b92915050565b6000806040838503121561102c5761102b610f8d565b5b600061103a85828601610fa9565b925050602061104b85828601610fa9565b9150509250929050565b600073ffffffffffffffffffffffffffffffffffffffff82169050919050565b600061108082611055565b9050919050565b61109081611075565b811461109b57600080fd5b50565b6000813590506110ad81611087565b92915050565b6000602082840312156110c9576110c8610f8d565b5b60006110d78482850161109e565b91505092915050565b600081519050919050565b600082825260208201905092915050565b6000819050602082019050919050565b61111581611075565b82525050565b6000611127838361110c565b60208301905092915050565b6000602082019050919050565b600061114b826110e0565b61115581856110eb565b9350611160836110fc565b8060005b83811015611191578151611178888261111b565b975061118383611133565b925050600181019050611164565b5085935050505092915050565b600060208201905081810360008301526111b88184611140565b905092915050565b6111c981611075565b82525050565b60006020820190506111e460008301846111c0565b92915050565b6000815190506111f981610f92565b92915050565b60006020828403121561121557611214610f8d565b5b6000611223848285016111ea565b91505092915050565b7f4e487b7100000000000000000000000000000000000000000000000000000000600052601160045260246000fd5b600061126682610ecf565b91507fffffffffffffffffffffffffffffffffffffffffffffffffffffffffffffffff8214156112995761129861122c565b5b600182019050919050565b6000815190506112b381611087565b92915050565b6000602082840312156112cf576112ce610f8d565b5b60006112dd848285016112a4565b91505092915050565b60006060820190506112fb60008301866111c0565b61130860208301856111c0565b6113156040830184610feb565b949350505050565b600061132882610ecf565b915061133383610ecf565b9250817fffffffffffffffffffffffffffffffffffffffffffffffffffffffffffffffff048311821515161561136c5761136b61122c565b5b828202905092915050565b600082825260208201905092915050565b7f4572726f722c20546f6b656e20636f737473206d6f7265000000000000000000600082015250565b60006113be601783611377565b91506113c982611388565b602082019050919050565b600060208201905081810360008301526113ed816113b1565b905091905056fea26469706673582212202d5d83504223439d919c78083659c9af8c238388b37a99e847b1480ec4c2ca0264736f6c634300080a0033",
  "immutableReferences": {},
  "source": "// SPDX-License-Identifier: MIT\npragma solidity >=0.4.22 <0.9.0;\n\nimport \"./ColorLand.sol\";\n\ncontract MarketplaceLand {\n    ColorLand private _land;\n    uint256[] public nftListOfUser;\n    address[] public addressListOfNft;\n    uint256[] public lastSellPriceList;\n    uint256[] public forSellPriceList;\n\n    struct LandInfo {\n        uint256 lastSellPrice;\n        uint256 forSalePrice; // 0 means: not for sale.\n    }\n\n    mapping(uint256 => LandInfo) private _landInfo;\n\n    constructor(ColorLand landContractAddress) {\n        _land = landContractAddress;\n    }\n\n    function setSaleNfts(uint256 index, uint256 price)\n        public\n        returns (uint256)\n    {\n        _landInfo[index].forSalePrice = price;\n        return index;\n    }\n\n    function buyNftFromMarket(uint256 index) public returns (uint256) {\n        _land.safeTransferFrom(_land.ownerOf(index), msg.sender, index);\n        return index;\n    }\n\n    function buyLand() public payable returns (uint256) {\n        require(\n            msg.value >= _land.getCurrentPrice() * 10**18,\n            \"Error, Token costs more\"\n        );\n        uint256 landId = _land.mintLand(msg.sender);\n        _landInfo[_land.getTokenIds()] = LandInfo({\n            lastSellPrice: _land.getInitPrice(),\n            forSalePrice: 0\n        });\n\n        return landId;\n    }\n\n    function getAddressOfNfts() public returns (address[] memory) {\n        for (uint256 i = 1; i <= _land.getTotal(); i++) {\n            addressListOfNft.push(_land.ownerOf(i));\n        }\n        return addressListOfNft;\n    }\n\n    function getLastSellPrice() public returns (uint256[] memory) {\n        for (uint256 i = 1; i <= _land.getTotal(); i++) {\n            lastSellPriceList.push(_landInfo[i].lastSellPrice);\n        }\n        return lastSellPriceList;\n    }\n\n    function getForSellPrice() public returns (uint256[] memory) {\n        for (uint256 i = 1; i <= _land.getTotal(); i++) {\n            forSellPriceList.push(_landInfo[i].forSalePrice);\n        }\n        return forSellPriceList;\n    }\n\n    function getNftOfUser(address user) public returns (uint256[] memory) {\n        for (uint256 i = 1; i <= _land.getTotal(); i++) {\n            if (_land.ownerOf(i) == user) {\n                nftListOfUser.push(i);\n            }\n        }\n        return nftListOfUser;\n    }\n}\n",
  "sourcePath": "/Users/datphits/testweb3/src/contracts/MarketplaceLand.sol",
  "compiler": {
    "name": "solc",
    "version": "0.8.10+commit.fc410830.Emscripten.clang"
  },
  "schemaVersion": "3.4.3",
  "updatedAt": "2021-12-25T16:27:04.540Z",
  "networkType": "ethereum",
  "devdoc": {
    "kind": "dev",
    "methods": {},
    "version": 1
  },
  "userdoc": {
    "kind": "user",
    "methods": {},
    "version": 1
  }
}